{
  "transactions": [
    {
      "hash": "0xe2c7de3150df6d93e04a46261a0881ef874cdd0571cfe527c87d4b9212cdcd91",
      "transactionType": "CALL",
      "contractName": null,
      "contractAddress": "0xa0ccac865034e7a8f47297e130fcf117891ca155",
      "function": "createFarm(address,(uint256,uint256,uint256,uint32,uint32,uint32,uint32,uint32,uint32,uint32,bool,bool))",
      "arguments": [
        "0x96eb59D09174Efbb1f1A5cF8a522b3AEC64A52E7",
        "(0, 0, 28935185185185184, 0, 4294967295, 1737907406, 4294967295, 1737907406, 4294967295, 86400, true, false)"
      ],
      "transaction": {
        "from": "0xb123e3c839378b4059f077f80d21dce9061f2862",
        "to": "0xa0ccac865034e7a8f47297e130fcf117891ca155",
        "gas": "0x70f85",
        "value": "0x0",
        "input": "0x6045a0af00000000000000000000000096eb59d09174efbb1f1a5cf8a522b3aec64a52e7000000000000000000000000000000000000000000000000000000000000000000000000000000000000000000000000000000000000000000000000000000000000000000000000000000000000000000000000000000000066cc65ca791da0000000000000000000000000000000000000000000000000000000000000000000000000000000000000000000000000000000000000000000000000ffffffff0000000000000000000000000000000000000000000000000000000067965cce00000000000000000000000000000000000000000000000000000000ffffffff0000000000000000000000000000000000000000000000000000000067965cce00000000000000000000000000000000000000000000000000000000ffffffff000000000000000000000000000000000000000000000000000000000001518000000000000000000000000000000000000000000000000000000000000000010000000000000000000000000000000000000000000000000000000000000000",
        "nonce": "0xa",
        "chainId": "0x14a34"
      },
      "additionalContracts": [
        {
          "transactionType": "CREATE",
          "address": "0xd5b821677726b15d00b251c55d0c4349c2eb86a6",
          "initCode": "0x60a06040526040516105c53803806105c583398101604081905261002291610387565b61002c828261003e565b506001600160a01b0316608052610484565b610047826100fe565b6040516001600160a01b038316907f1cf3b03a6cf19fa2baba4df148e9dcabedea7f8a5c07840e207e5c089be95d3e90600090a28051156100f2576100ed826001600160a01b0316635c60da1b6040518163ffffffff1660e01b8152600401602060405180830381865afa1580156100c3573d6000803e3d6000fd5b505050506040513d601f19601f820116820180604052508101906100e7919061044d565b82610211565b505050565b6100fa610288565b5050565b806001600160a01b03163b60000361013957604051631933b43b60e21b81526001600160a01b03821660048201526024015b60405180910390fd5b807fa3f0ad74e5423aebfd80d3ef4346578335a9a72aeaee59ff6cb3582b35133d5080546001600160a01b0319166001600160a01b0392831617905560408051635c60da1b60e01b81529051600092841691635c60da1b9160048083019260209291908290030181865afa1580156101b5573d6000803e3d6000fd5b505050506040513d601f19601f820116820180604052508101906101d9919061044d565b9050806001600160a01b03163b6000036100fa57604051634c9c8ce360e01b81526001600160a01b0382166004820152602401610130565b6060600080846001600160a01b03168460405161022e9190610468565b600060405180830381855af49150503d8060008114610269576040519150601f19603f3d011682016040523d82523d6000602084013e61026e565b606091505b50909250905061027f8583836102a9565b95945050505050565b34156102a75760405163b398979f60e01b815260040160405180910390fd5b565b6060826102be576102b982610308565b610301565b81511580156102d557506001600160a01b0384163b155b156102fe57604051639996b31560e01b81526001600160a01b0385166004820152602401610130565b50805b9392505050565b8051156103185780518082602001fd5b60405163d6bda27560e01b815260040160405180910390fd5b80516001600160a01b038116811461034857600080fd5b919050565b634e487b7160e01b600052604160045260246000fd5b60005b8381101561037e578181015183820152602001610366565b50506000910152565b6000806040838503121561039a57600080fd5b6103a383610331565b60208401519092506001600160401b038111156103bf57600080fd5b8301601f810185136103d057600080fd5b80516001600160401b038111156103e9576103e961034d565b604051601f8201601f19908116603f011681016001600160401b03811182821017156104175761041761034d565b60405281815282820160200187101561042f57600080fd5b610440826020830160208601610363565b8093505050509250929050565b60006020828403121561045f57600080fd5b61030182610331565b6000825161047a818460208701610363565b9190910192915050565b60805161012761049e6000396000601e01526101276000f3fe6080604052600a600c565b005b60186014601a565b60a0565b565b60007f00000000000000000000000000000000000000000000000000000000000000006001600160a01b0316635c60da1b6040518163ffffffff1660e01b8152600401602060405180830381865afa1580156079573d6000803e3d6000fd5b505050506040513d601f19601f82011682018060405250810190609b919060c3565b905090565b3660008037600080366000845af43d6000803e80801560be573d6000f35b3d6000fd5b60006020828403121560d457600080fd5b81516001600160a01b038116811460ea57600080fd5b939250505056fea26469706673582212200b2497e278693eeb6aad28c364650b68a9499e994923e45eb829e8cbed0381d364736f6c634300081a00330000000000000000000000004082bee96a780cc4ff9de603e3856c004495a7db000000000000000000000000000000000000000000000000000000000000004000000000000000000000000000000000000000000000000000000000000001c4ebd639b600000000000000000000000096eb59d09174efbb1f1a5cf8a522b3aec64a52e7000000000000000000000000a0ccac865034e7a8f47297e130fcf117891ca155000000000000000000000000000000000000000000000000000000000000000000000000000000000000000000000000000000000000000000000000000000000000000000000000000000000000000000000000000000000066cc65ca791da0000000000000000000000000000000000000000000000000000000000000000000000000000000000000000000000000000000000000000000000000ffffffff0000000000000000000000000000000000000000000000000000000067965cce00000000000000000000000000000000000000000000000000000000ffffffff0000000000000000000000000000000000000000000000000000000067965cce00000000000000000000000000000000000000000000000000000000ffffffff00000000000000000000000000000000000000000000000000000000000151800000000000000000000000000000000000000000000000000000000000000001000000000000000000000000000000000000000000000000000000000000000000000000000000000000000000000000000000000000000000000000"
        }
      ],
      "isFixedGasLimit": false
    }
  ],
  "receipts": [
    {
      "status": "0x1",
      "cumulativeGasUsed": "0x33cd09",
      "logs": [
        {
          "address": "0xd5b821677726b15d00b251c55d0c4349c2eb86a6",
          "topics": [
            "0x1cf3b03a6cf19fa2baba4df148e9dcabedea7f8a5c07840e207e5c089be95d3e",
            "0x0000000000000000000000004082bee96a780cc4ff9de603e3856c004495a7db"
          ],
          "data": "0x",
          "blockHash": "0x0ac749f090754ad7ae8660691bba9f9dd22d9a3d6db3b3212d1da9a4851e73a6",
          "blockNumber": "0x1417efc",
          "transactionHash": "0xe2c7de3150df6d93e04a46261a0881ef874cdd0571cfe527c87d4b9212cdcd91",
          "transactionIndex": "0x18",
          "logIndex": "0x2f",
          "removed": false
        },
        {
          "address": "0xd5b821677726b15d00b251c55d0c4349c2eb86a6",
          "topics": [
            "0xe5c1ad7e8c93c9fad3ed480efb597a18a50222c5f54fcf420c43db6a04a117d4"
          ],
          "data": "0x000000000000000000000000000000000000000000000000000000000000000000000000000000000000000000000000000000000000000000000000000000000000000000000000000000000000000000000000000000000066cc65ca791da0000000000000000000000000000000000000000000000000000000000000000000000000000000000000000000000000000000000000000000000000ffffffff0000000000000000000000000000000000000000000000000000000067965cce00000000000000000000000000000000000000000000000000000000ffffffff0000000000000000000000000000000000000000000000000000000067965cce00000000000000000000000000000000000000000000000000000000ffffffff000000000000000000000000000000000000000000000000000000000001518000000000000000000000000000000000000000000000000000000000000000010000000000000000000000000000000000000000000000000000000000000000",
          "blockHash": "0x0ac749f090754ad7ae8660691bba9f9dd22d9a3d6db3b3212d1da9a4851e73a6",
          "blockNumber": "0x1417efc",
          "transactionHash": "0xe2c7de3150df6d93e04a46261a0881ef874cdd0571cfe527c87d4b9212cdcd91",
          "transactionIndex": "0x18",
          "logIndex": "0x30",
          "removed": false
        },
        {
          "address": "0xd5b821677726b15d00b251c55d0c4349c2eb86a6",
          "topics": [
            "0xc7f505b2f371ae2175ee4913f4499e1f2633a7b5936321eed1cdaeb6115181d2"
          ],
          "data": "0x0000000000000000000000000000000000000000000000000000000000000001",
          "blockHash": "0x0ac749f090754ad7ae8660691bba9f9dd22d9a3d6db3b3212d1da9a4851e73a6",
          "blockNumber": "0x1417efc",
          "transactionHash": "0xe2c7de3150df6d93e04a46261a0881ef874cdd0571cfe527c87d4b9212cdcd91",
          "transactionIndex": "0x18",
          "logIndex": "0x31",
          "removed": false
        },
        {
          "address": "0xa0ccac865034e7a8f47297e130fcf117891ca155",
          "topics": [
            "0x6e766a2e8ac6e7ecbc0956ba73fdf9e546312daf00a15a6817b8ca66159bd7ab",
            "0x000000000000000000000000d5b821677726b15d00b251c55d0c4349c2eb86a6",
            "0x00000000000000000000000096eb59d09174efbb1f1a5cf8a522b3aec64a52e7"
          ],
          "data": "0x00000000000000000000000032198912cf24a0240ae48f46fedf92ecd3328eac",
          "blockHash": "0x0ac749f090754ad7ae8660691bba9f9dd22d9a3d6db3b3212d1da9a4851e73a6",
          "blockNumber": "0x1417efc",
          "transactionHash": "0xe2c7de3150df6d93e04a46261a0881ef874cdd0571cfe527c87d4b9212cdcd91",
          "transactionIndex": "0x18",
          "logIndex": "0x32",
          "removed": false
        }
      ],
      "logsBloom": "0x00004100000100000000000080000000000000000000000000001000000000010000000000000000000000000000000000000000000000000000000000000000000000000000000000000000001000000000000400000000000000000000800000100000000000000000000000000100000000000000000000000000000000000000000000000000100800020000080000000000000080000100000000100000000002000000000000000000020000000000000000000000000000000000000000000000000000000000000000000000000000000004000000800102000000000000000000000000000000000000000000000000000000000400000000000002",
      "type": "0x2",
      "transactionHash": "0xe2c7de3150df6d93e04a46261a0881ef874cdd0571cfe527c87d4b9212cdcd91",
      "transactionIndex": "0x18",
      "blockHash": "0x0ac749f090754ad7ae8660691bba9f9dd22d9a3d6db3b3212d1da9a4851e73a6",
      "blockNumber": "0x1417efc",
      "gasUsed": "0x4d46c",
      "effectiveGasPrice": "0x3cef5cfa",
      "blobGasUsed": "0x0",
      "from": "0xb123e3c839378b4059f077f80d21dce9061f2862",
      "to": "0xa0ccac865034e7a8f47297e130fcf117891ca155",
      "contractAddress": null,
      "l1BaseFeeScalar": "0x44d",
      "l1BlobBaseFee": "0x1",
      "l1BlobBaseFeeScalar": "0xa118b",
      "l1Fee": "0x8303994ff",
      "l1GasPrice": "0x3a752d4e2",
      "l1GasUsed": "0x7f3"
    }
  ],
  "libraries": [],
  "pending": [],
  "returns": {},
  "timestamp": 1737907423,
  "chain": 84532,
  "commit": "d835c44"
}