{
  "transactions": [
    {
      "hash": "0xf284e16093aadf3d713f910c138fa1515c6e896a077419fd4f0fb73a82691e08",
      "transactionType": "CALL",
      "contractName": null,
      "contractAddress": "0x575befde27d08364078eb5409acdceafeab92e3a",
      "function": "createFarm(address,(uint256,uint256,uint256,uint32,uint32,uint32,uint32,uint32,uint32,uint32,bool,bool))",
      "arguments": [
        "0xa67685BB966bbF4DddbD6d50ec5C65BCc33317CD",
        "(1000000000000000000000, 10000000000000000000, 28935185185185184, 1738005852, 4294967295, 1738005852, 4294967295, 1738005852, 4294967295, 86400, true, true)"
      ],
      "transaction": {
        "from": "0xb123e3c839378b4059f077f80d21dce9061f2862",
        "to": "0x575befde27d08364078eb5409acdceafeab92e3a",
        "gas": "0x76e82",
        "value": "0x0",
        "input": "0x6045a0af000000000000000000000000a67685bb966bbf4dddbd6d50ec5c65bcc33317cd00000000000000000000000000000000000000000000003635c9adc5dea000000000000000000000000000000000000000000000000000008ac7230489e800000000000000000000000000000000000000000000000000000066cc65ca791da0000000000000000000000000000000000000000000000000000000006797dd5c00000000000000000000000000000000000000000000000000000000ffffffff000000000000000000000000000000000000000000000000000000006797dd5c00000000000000000000000000000000000000000000000000000000ffffffff000000000000000000000000000000000000000000000000000000006797dd5c00000000000000000000000000000000000000000000000000000000ffffffff000000000000000000000000000000000000000000000000000000000001518000000000000000000000000000000000000000000000000000000000000000010000000000000000000000000000000000000000000000000000000000000001",
        "nonce": "0x70",
        "chainId": "0x66eee"
      },
      "additionalContracts": [
        {
          "transactionType": "CREATE",
          "address": "0x641ddc90f2b83d94aa355b1d912f1e5829fee67b",
          "initCode": "0x60a060405260405161057738038061057783398101604081905261002291610354565b61002c828261003e565b506001600160a01b0316608052610445565b610047826100fb565b6040516001600160a01b038316907f1cf3b03a6cf19fa2baba4df148e9dcabedea7f8a5c07840e207e5c089be95d3e905f90a28051156100ef576100ea826001600160a01b0316635c60da1b6040518163ffffffff1660e01b8152600401602060405180830381865afa1580156100c0573d5f803e3d5ffd5b505050506040513d601f19601f820116820180604052508101906100e49190610416565b82610209565b505050565b6100f761027c565b5050565b806001600160a01b03163b5f0361013557604051631933b43b60e21b81526001600160a01b03821660048201526024015b60405180910390fd5b807fa3f0ad74e5423aebfd80d3ef4346578335a9a72aeaee59ff6cb3582b35133d5080546001600160a01b0319166001600160a01b0392831617905560408051635c60da1b60e01b815290515f92841691635c60da1b9160048083019260209291908290030181865afa1580156101ae573d5f803e3d5ffd5b505050506040513d601f19601f820116820180604052508101906101d29190610416565b9050806001600160a01b03163b5f036100f757604051634c9c8ce360e01b81526001600160a01b038216600482015260240161012c565b60605f80846001600160a01b031684604051610225919061042f565b5f60405180830381855af49150503d805f811461025d576040519150601f19603f3d011682016040523d82523d5f602084013e610262565b606091505b50909250905061027385838361029d565b95945050505050565b341561029b5760405163b398979f60e01b815260040160405180910390fd5b565b6060826102b2576102ad826102fc565b6102f5565b81511580156102c957506001600160a01b0384163b155b156102f257604051639996b31560e01b81526001600160a01b038516600482015260240161012c565b50805b9392505050565b80511561030c5780518082602001fd5b60405163d6bda27560e01b815260040160405180910390fd5b80516001600160a01b038116811461033b575f80fd5b919050565b634e487b7160e01b5f52604160045260245ffd5b5f8060408385031215610365575f80fd5b61036e83610325565b60208401519092506001600160401b03811115610389575f80fd5b8301601f81018513610399575f80fd5b80516001600160401b038111156103b2576103b2610340565b604051601f8201601f19908116603f011681016001600160401b03811182821017156103e0576103e0610340565b6040528181528282016020018710156103f7575f80fd5b8160208401602083015e5f602083830101528093505050509250929050565b5f60208284031215610426575f80fd5b6102f582610325565b5f82518060208501845e5f920191825250919050565b60805161011b61045c5f395f601d015261011b5ff3fe6080604052600a600c565b005b60186014601a565b609d565b565b5f7f00000000000000000000000000000000000000000000000000000000000000006001600160a01b0316635c60da1b6040518163ffffffff1660e01b8152600401602060405180830381865afa1580156076573d5f803e3d5ffd5b505050506040513d601f19601f820116820180604052508101906098919060ba565b905090565b365f80375f80365f845af43d5f803e80801560b6573d5ff35b3d5ffd5b5f6020828403121560c9575f80fd5b81516001600160a01b038116811460de575f80fd5b939250505056fea2646970667358221220bf187d04c3dc85ae8df3c0dd10a9f0145b0a7e188d1ac444871d6a3cf38f5ff564736f6c634300081a0033000000000000000000000000b2883d5f119bd6f0005a6f44243b4b0b3539df82000000000000000000000000000000000000000000000000000000000000004000000000000000000000000000000000000000000000000000000000000001c4ebd639b6000000000000000000000000a67685bb966bbf4dddbd6d50ec5c65bcc33317cd000000000000000000000000575befde27d08364078eb5409acdceafeab92e3a00000000000000000000000000000000000000000000003635c9adc5dea000000000000000000000000000000000000000000000000000008ac7230489e800000000000000000000000000000000000000000000000000000066cc65ca791da0000000000000000000000000000000000000000000000000000000006797dd5c00000000000000000000000000000000000000000000000000000000ffffffff000000000000000000000000000000000000000000000000000000006797dd5c00000000000000000000000000000000000000000000000000000000ffffffff000000000000000000000000000000000000000000000000000000006797dd5c00000000000000000000000000000000000000000000000000000000ffffffff00000000000000000000000000000000000000000000000000000000000151800000000000000000000000000000000000000000000000000000000000000001000000000000000000000000000000000000000000000000000000000000000100000000000000000000000000000000000000000000000000000000"
        }
      ],
      "isFixedGasLimit": false
    }
  ],
  "receipts": [
    {
      "status": "0x1",
      "cumulativeGasUsed": "0x58b0d",
      "logs": [
        {
          "address": "0x641ddc90f2b83d94aa355b1d912f1e5829fee67b",
          "topics": [
            "0x1cf3b03a6cf19fa2baba4df148e9dcabedea7f8a5c07840e207e5c089be95d3e",
            "0x000000000000000000000000b2883d5f119bd6f0005a6f44243b4b0b3539df82"
          ],
          "data": "0x",
          "blockHash": "0x90a6a1090e057d6f20fd4675ee4f541cb2e01b1a0d2ffd616601c6f2e05a4cb0",
          "blockNumber": "0x70fde68",
          "transactionHash": "0xf284e16093aadf3d713f910c138fa1515c6e896a077419fd4f0fb73a82691e08",
          "transactionIndex": "0x1",
          "logIndex": "0x0",
          "removed": false
        },
        {
          "address": "0x641ddc90f2b83d94aa355b1d912f1e5829fee67b",
          "topics": [
            "0xe5c1ad7e8c93c9fad3ed480efb597a18a50222c5f54fcf420c43db6a04a117d4"
          ],
          "data": "0x00000000000000000000000000000000000000000000003635c9adc5dea000000000000000000000000000000000000000000000000000008ac7230489e800000000000000000000000000000000000000000000000000000066cc65ca791da0000000000000000000000000000000000000000000000000000000006797dd5c00000000000000000000000000000000000000000000000000000000ffffffff000000000000000000000000000000000000000000000000000000006797dd5c00000000000000000000000000000000000000000000000000000000ffffffff000000000000000000000000000000000000000000000000000000006797dd5c00000000000000000000000000000000000000000000000000000000ffffffff000000000000000000000000000000000000000000000000000000000001518000000000000000000000000000000000000000000000000000000000000000010000000000000000000000000000000000000000000000000000000000000001",
          "blockHash": "0x90a6a1090e057d6f20fd4675ee4f541cb2e01b1a0d2ffd616601c6f2e05a4cb0",
          "blockNumber": "0x70fde68",
          "transactionHash": "0xf284e16093aadf3d713f910c138fa1515c6e896a077419fd4f0fb73a82691e08",
          "transactionIndex": "0x1",
          "logIndex": "0x1",
          "removed": false
        },
        {
          "address": "0x641ddc90f2b83d94aa355b1d912f1e5829fee67b",
          "topics": [
            "0xc7f505b2f371ae2175ee4913f4499e1f2633a7b5936321eed1cdaeb6115181d2"
          ],
          "data": "0x0000000000000000000000000000000000000000000000000000000000000001",
          "blockHash": "0x90a6a1090e057d6f20fd4675ee4f541cb2e01b1a0d2ffd616601c6f2e05a4cb0",
          "blockNumber": "0x70fde68",
          "transactionHash": "0xf284e16093aadf3d713f910c138fa1515c6e896a077419fd4f0fb73a82691e08",
          "transactionIndex": "0x1",
          "logIndex": "0x2",
          "removed": false
        },
        {
          "address": "0x575befde27d08364078eb5409acdceafeab92e3a",
          "topics": [
            "0x6e766a2e8ac6e7ecbc0956ba73fdf9e546312daf00a15a6817b8ca66159bd7ab",
            "0x000000000000000000000000641ddc90f2b83d94aa355b1d912f1e5829fee67b",
            "0x000000000000000000000000a67685bb966bbf4dddbd6d50ec5c65bcc33317cd"
          ],
          "data": "0x000000000000000000000000fde4ba7c4e86c00136dd9e915a4c4e1ee74c6dad",
          "blockHash": "0x90a6a1090e057d6f20fd4675ee4f541cb2e01b1a0d2ffd616601c6f2e05a4cb0",
          "blockNumber": "0x70fde68",
          "transactionHash": "0xf284e16093aadf3d713f910c138fa1515c6e896a077419fd4f0fb73a82691e08",
          "transactionIndex": "0x1",
          "logIndex": "0x3",
          "removed": false
        }
      ],
      "logsBloom": "0x02000000000100000000000080000010000000000800000000010000000000000200000000000000000000000000000000000000000000000000000000000000000000000000000000000000001000001000000400000000000000000000000008100000000000000000000000000000000000040100000020000000000000000000000000004000000800000000080000000000000080000000000000000000000000000000000000000000000010000000000000000000000000000000020000000000000000000000000000000000000000000004000000800000000008000000000000000000000000100000000000000000000000000400000000000000",
      "type": "0x2",
      "transactionHash": "0xf284e16093aadf3d713f910c138fa1515c6e896a077419fd4f0fb73a82691e08",
      "transactionIndex": "0x1",
      "blockHash": "0x90a6a1090e057d6f20fd4675ee4f541cb2e01b1a0d2ffd616601c6f2e05a4cb0",
      "blockNumber": "0x70fde68",
      "gasUsed": "0x58b0d",
      "effectiveGasPrice": "0x5f5e100",
      "from": "0xb123e3c839378b4059f077f80d21dce9061f2862",
      "to": "0x575befde27d08364078eb5409acdceafeab92e3a",
      "contractAddress": null,
      "gasUsedForL1": "0x2fd4",
      "l1BlockNumber": "0x73b788"
    }
  ],
  "libraries": [],
  "pending": [],
  "returns": {},
  "timestamp": 1738005867,
  "chain": 421614,
  "commit": "1e4c47a"
}