{
  "transactions": [
    {
      "hash": "0x5afe12484ff9c965df36ac2183fcc237578b64caad8b568fb19a6ba65aaebe39",
      "transactionType": "CALL",
      "contractName": null,
      "contractAddress": "0xec4a8a4b9e09ae963d5faba4d3d8ba5d4c412b6b",
      "function": "createFarm(address,(uint256,uint256,uint256,uint32,uint32,uint32,uint32,uint32,uint32,uint32,bool,bool))",
      "arguments": [
        "0x59fdaB9956C5Dc85f2b9ceC31551cAb6f9C3897D",
        "(0, 0, 28935185185185184, 0, 4294967295, 1737911100, 4294967295, 1737911100, 4294967295, 86400, true, false)"
      ],
      "transaction": {
        "from": "0xb123e3c839378b4059f077f80d21dce9061f2862",
        "to": "0xec4a8a4b9e09ae963d5faba4d3d8ba5d4c412b6b",
        "gas": "0x70f85",
        "value": "0x0",
        "input": "0x6045a0af00000000000000000000000059fdab9956c5dc85f2b9cec31551cab6f9c3897d000000000000000000000000000000000000000000000000000000000000000000000000000000000000000000000000000000000000000000000000000000000000000000000000000000000000000000000000000000000066cc65ca791da0000000000000000000000000000000000000000000000000000000000000000000000000000000000000000000000000000000000000000000000000ffffffff0000000000000000000000000000000000000000000000000000000067966b3c00000000000000000000000000000000000000000000000000000000ffffffff0000000000000000000000000000000000000000000000000000000067966b3c00000000000000000000000000000000000000000000000000000000ffffffff000000000000000000000000000000000000000000000000000000000001518000000000000000000000000000000000000000000000000000000000000000010000000000000000000000000000000000000000000000000000000000000000",
        "nonce": "0xc",
        "chainId": "0xaa36a7"
      },
      "additionalContracts": [
        {
          "transactionType": "CREATE",
          "address": "0xe379e99f038935069ab4916858b34b67ffaab332",
          "initCode": "0x60a06040526040516105c53803806105c583398101604081905261002291610387565b61002c828261003e565b506001600160a01b0316608052610484565b610047826100fe565b6040516001600160a01b038316907f1cf3b03a6cf19fa2baba4df148e9dcabedea7f8a5c07840e207e5c089be95d3e90600090a28051156100f2576100ed826001600160a01b0316635c60da1b6040518163ffffffff1660e01b8152600401602060405180830381865afa1580156100c3573d6000803e3d6000fd5b505050506040513d601f19601f820116820180604052508101906100e7919061044d565b82610211565b505050565b6100fa610288565b5050565b806001600160a01b03163b60000361013957604051631933b43b60e21b81526001600160a01b03821660048201526024015b60405180910390fd5b807fa3f0ad74e5423aebfd80d3ef4346578335a9a72aeaee59ff6cb3582b35133d5080546001600160a01b0319166001600160a01b0392831617905560408051635c60da1b60e01b81529051600092841691635c60da1b9160048083019260209291908290030181865afa1580156101b5573d6000803e3d6000fd5b505050506040513d601f19601f820116820180604052508101906101d9919061044d565b9050806001600160a01b03163b6000036100fa57604051634c9c8ce360e01b81526001600160a01b0382166004820152602401610130565b6060600080846001600160a01b03168460405161022e9190610468565b600060405180830381855af49150503d8060008114610269576040519150601f19603f3d011682016040523d82523d6000602084013e61026e565b606091505b50909250905061027f8583836102a9565b95945050505050565b34156102a75760405163b398979f60e01b815260040160405180910390fd5b565b6060826102be576102b982610308565b610301565b81511580156102d557506001600160a01b0384163b155b156102fe57604051639996b31560e01b81526001600160a01b0385166004820152602401610130565b50805b9392505050565b8051156103185780518082602001fd5b60405163d6bda27560e01b815260040160405180910390fd5b80516001600160a01b038116811461034857600080fd5b919050565b634e487b7160e01b600052604160045260246000fd5b60005b8381101561037e578181015183820152602001610366565b50506000910152565b6000806040838503121561039a57600080fd5b6103a383610331565b60208401519092506001600160401b038111156103bf57600080fd5b8301601f810185136103d057600080fd5b80516001600160401b038111156103e9576103e961034d565b604051601f8201601f19908116603f011681016001600160401b03811182821017156104175761041761034d565b60405281815282820160200187101561042f57600080fd5b610440826020830160208601610363565b8093505050509250929050565b60006020828403121561045f57600080fd5b61030182610331565b6000825161047a818460208701610363565b9190910192915050565b60805161012761049e6000396000601e01526101276000f3fe6080604052600a600c565b005b60186014601a565b60a0565b565b60007f00000000000000000000000000000000000000000000000000000000000000006001600160a01b0316635c60da1b6040518163ffffffff1660e01b8152600401602060405180830381865afa1580156079573d6000803e3d6000fd5b505050506040513d601f19601f82011682018060405250810190609b919060c3565b905090565b3660008037600080366000845af43d6000803e80801560be573d6000f35b3d6000fd5b60006020828403121560d457600080fd5b81516001600160a01b038116811460ea57600080fd5b939250505056fea26469706673582212200b2497e278693eeb6aad28c364650b68a9499e994923e45eb829e8cbed0381d364736f6c634300081a0033000000000000000000000000f207bd73af8f300534850a589d563a66f85c9f95000000000000000000000000000000000000000000000000000000000000004000000000000000000000000000000000000000000000000000000000000001c4ebd639b600000000000000000000000059fdab9956c5dc85f2b9cec31551cab6f9c3897d000000000000000000000000ec4a8a4b9e09ae963d5faba4d3d8ba5d4c412b6b000000000000000000000000000000000000000000000000000000000000000000000000000000000000000000000000000000000000000000000000000000000000000000000000000000000000000000000000000000000066cc65ca791da0000000000000000000000000000000000000000000000000000000000000000000000000000000000000000000000000000000000000000000000000ffffffff0000000000000000000000000000000000000000000000000000000067966b3c00000000000000000000000000000000000000000000000000000000ffffffff0000000000000000000000000000000000000000000000000000000067966b3c00000000000000000000000000000000000000000000000000000000ffffffff00000000000000000000000000000000000000000000000000000000000151800000000000000000000000000000000000000000000000000000000000000001000000000000000000000000000000000000000000000000000000000000000000000000000000000000000000000000000000000000000000000000"
        }
      ],
      "isFixedGasLimit": false
    }
  ],
  "receipts": [
    {
      "status": "0x1",
      "cumulativeGasUsed": "0x9c2b0e",
      "logs": [
        {
          "address": "0xe379e99f038935069ab4916858b34b67ffaab332",
          "topics": [
            "0x1cf3b03a6cf19fa2baba4df148e9dcabedea7f8a5c07840e207e5c089be95d3e",
            "0x000000000000000000000000f207bd73af8f300534850a589d563a66f85c9f95"
          ],
          "data": "0x",
          "blockHash": "0x536f910dd12ee87ea72540aca8177629b01a9596b43690896b7b6c7e907387f8",
          "blockNumber": "0x7399d6",
          "blockTimestamp": "0x67966b48",
          "transactionHash": "0x5afe12484ff9c965df36ac2183fcc237578b64caad8b568fb19a6ba65aaebe39",
          "transactionIndex": "0x59",
          "logIndex": "0x93",
          "removed": false
        },
        {
          "address": "0xe379e99f038935069ab4916858b34b67ffaab332",
          "topics": [
            "0xe5c1ad7e8c93c9fad3ed480efb597a18a50222c5f54fcf420c43db6a04a117d4"
          ],
          "data": "0x000000000000000000000000000000000000000000000000000000000000000000000000000000000000000000000000000000000000000000000000000000000000000000000000000000000000000000000000000000000066cc65ca791da0000000000000000000000000000000000000000000000000000000000000000000000000000000000000000000000000000000000000000000000000ffffffff0000000000000000000000000000000000000000000000000000000067966b3c00000000000000000000000000000000000000000000000000000000ffffffff0000000000000000000000000000000000000000000000000000000067966b3c00000000000000000000000000000000000000000000000000000000ffffffff000000000000000000000000000000000000000000000000000000000001518000000000000000000000000000000000000000000000000000000000000000010000000000000000000000000000000000000000000000000000000000000000",
          "blockHash": "0x536f910dd12ee87ea72540aca8177629b01a9596b43690896b7b6c7e907387f8",
          "blockNumber": "0x7399d6",
          "blockTimestamp": "0x67966b48",
          "transactionHash": "0x5afe12484ff9c965df36ac2183fcc237578b64caad8b568fb19a6ba65aaebe39",
          "transactionIndex": "0x59",
          "logIndex": "0x94",
          "removed": false
        },
        {
          "address": "0xe379e99f038935069ab4916858b34b67ffaab332",
          "topics": [
            "0xc7f505b2f371ae2175ee4913f4499e1f2633a7b5936321eed1cdaeb6115181d2"
          ],
          "data": "0x0000000000000000000000000000000000000000000000000000000000000001",
          "blockHash": "0x536f910dd12ee87ea72540aca8177629b01a9596b43690896b7b6c7e907387f8",
          "blockNumber": "0x7399d6",
          "blockTimestamp": "0x67966b48",
          "transactionHash": "0x5afe12484ff9c965df36ac2183fcc237578b64caad8b568fb19a6ba65aaebe39",
          "transactionIndex": "0x59",
          "logIndex": "0x95",
          "removed": false
        },
        {
          "address": "0xec4a8a4b9e09ae963d5faba4d3d8ba5d4c412b6b",
          "topics": [
            "0x6e766a2e8ac6e7ecbc0956ba73fdf9e546312daf00a15a6817b8ca66159bd7ab",
            "0x000000000000000000000000e379e99f038935069ab4916858b34b67ffaab332",
            "0x00000000000000000000000059fdab9956c5dc85f2b9cec31551cab6f9c3897d"
          ],
          "data": "0x00000000000000000000000032198912cf24a0240ae48f46fedf92ecd3328eac",
          "blockHash": "0x536f910dd12ee87ea72540aca8177629b01a9596b43690896b7b6c7e907387f8",
          "blockNumber": "0x7399d6",
          "blockTimestamp": "0x67966b48",
          "transactionHash": "0x5afe12484ff9c965df36ac2183fcc237578b64caad8b568fb19a6ba65aaebe39",
          "transactionIndex": "0x59",
          "logIndex": "0x96",
          "removed": false
        }
      ],
      "logsBloom": "0x00000000000100000000000080000000000080000000000000000000000000000000000000000000000000000000000000000000000000000000000000000000000000000002400000000000001000001000000400000000000000000800000000900000000000000000000000000000000000000000000000000000000101000000000000000000000800000000080000000000000080000000000000000100000000000000000000000000000000000000000000000000000000000000000000000000000000000000000000000000000000000084000000810000000010000000000000000000000002001000000000000000004000000400000000000000",
      "type": "0x2",
      "transactionHash": "0x5afe12484ff9c965df36ac2183fcc237578b64caad8b568fb19a6ba65aaebe39",
      "transactionIndex": "0x59",
      "blockHash": "0x536f910dd12ee87ea72540aca8177629b01a9596b43690896b7b6c7e907387f8",
      "blockNumber": "0x7399d6",
      "gasUsed": "0x4d46c",
      "effectiveGasPrice": "0x4f6ff1a7d",
      "from": "0xb123e3c839378b4059f077f80d21dce9061f2862",
      "to": "0xec4a8a4b9e09ae963d5faba4d3d8ba5d4c412b6b",
      "contractAddress": null
    }
  ],
  "libraries": [],
  "pending": [],
  "returns": {},
  "timestamp": 1737911116,
  "chain": 11155111,
  "commit": "d835c44"
}